:020000040800F2
:10000000705E00205D0200087B4D0008F34400088C
:10001000794D00082B060008455C00080000000030
:10002000000000000000000000000000A101000826
:100030006D09000800000000F501000809500008E3
:1000400077020008770200087702000877020008AC
:10005000770200087702000877020008770200089C
:10006000770200087702000877020008770200088C
:10007000770200087702000877020008770200087C
:10008000A508000877020008770200083906000872
:100090002D060008770200087702000877020008A2
:1000A000770200087702000877020008770200084C
:1000B000770200080D510008195100087702000866
:1000C000770200087702000877020008770200082C
:1000D00077020008215C00082D5C0008395C0008EC
:1000E000770200087702000877020008770200080C
:1000F00077020008770200087702000877020008FC
:1001000077020008770200082551000877020008EE
:1001100077020008770200083151000877020008D2
:100120007702000877020008B1080008770200088B
:1001300077020008770200087702000877020008BB
:1001400077020008770200087702000877020008AB
:100150007702000877020008BD080008770200084F
:10016000770200087702000877020008770200088B
:1001700077020008770200087702000800000000FC
:100180007702000877020008DFF810D000F010FABC
:1001900000F0DEF800480047A56B0008705E002004
:1001A0002B4B19680868B0E8F04F80F30988BFF35B
:1001B0006F8F4FF0000080F311887047000000003F
:1001C00006480068006880F3088862B661B6BFF32D
:1001D0004F8FBFF36F8F00DF00BF00BF08ED00E05F
:1001E000DFF80C00016841F470010160704700BF46
:1001F00088ED00E0EFF30980BFF36F8F144B1A68AE
:100200001EF0100F08BF20ED108A20E9F04F10609B
:1002100008B44FF0500080F31188BFF34F8FBFF345
:100220006F8F07F0F5FC4FF0000080F3118808BCD9
:1002300019680868B0E8F04F1EF0100F08BFB0EC66
:10024000108A80F30988BFF36F8F704700BF00BF2B
:10025000E8000020EFF30580704700000648804763
:1002600006480047FEE7FEE7FEE7FEE7FEE7FEE79B
:10027000FEE7FEE7FEE7FEE7B95000088901000847
:100280002DE9F05F0546002092469B4688460646CB
:10029000814640241BE0284641464746224600F05E
:1002A0001AF953465A46C01A914110D311461846BE
:1002B000224600F001F92D1A67EB01084F4622464D
:1002C0000120002100F0F8F817EB00094E41201E34
:1002D000A4F10104DFDC484631462A464346BDE826
:1002E000F09F00000649074A0868504343F239026C
:1002F00010440860400870470149086070470000DA
:100300005C0100206D4EC64140EA01039B0703D00B
:1003100009E008C9121F08C0042AFAD203E011F844
:10032000013B00F8013B521EF9D27047D2B201E006
:1003300000F8012B491EFBD270470022F6E710B5EA
:1003400013460A4604461946FFF7F0FF204610BD43
:1003500070B5054C054D03E0206820448047241DFE
:10036000AC42F9D170BD000094880008988800085C
:100370002DE9FE4F81EA030404F0004421F000411E
:1003800000944FF0000B23F0004350EA01045ED0CC
:1003900052EA03045BD0C3F30A54C1F30A552C4458
:1003A000A4F2F3340194A0FB0254C1F3130141F40D
:1003B0008011C3F3130343F4801301FB024400FBD9
:1003C000034E840A970A44EA815447EA8357A4FB00
:1003D000076802958D0A05FB07854FEA932C04FBFD
:1003E0000C542705029D4FEA065847EA1637B5EB2D
:1003F00008056EEB070C870E920E47EA811742EA5A
:100400008312A7FB0201B6EB0B0164EB00042B0D7A
:1004100043EA0C335E1844EB1C50DA465146E7FBC6
:100420000201C5F313044FEA0B3343EA14534FEAB6
:100430000432019C43EA0603A4F10C040294009CDC
:10044000CDE900B400F066F803B0BDE8F08F0020FD
:100450000146F9E770B5C1F30A5201F000450024E6
:10046000C1F3130140F2FF3341F480119A4201DAE3
:10047000002070BD40F233439A42A2F2334203DCC3
:10048000524200F028F800E090402C43F1D0404266
:1004900070BD00F0004230F000400AD0C10D01F5FF
:1004A0006071C0F3160042EA0151C20840071143CF
:1004B0007047002001467047202A04DB203A00FAEA
:1004C00002F1002070479140C2F1200320FA03F3AB
:1004D000194390407047202A04DB203A21FA02F0A9
:1004E0000021704721FA02F3D040C2F1200291406E
:1004F00008431946704710B5141E73F1000408DA5A
:10050000401C41F1000192185B411A4301D120F0D7
:10051000010010BD2DE9F04D92469B4611B1B1FA94
:1005200081F202E0B0FA80F220329046FFF7C4FF79
:1005300004460F4640EA0A0041EA0B0153465A4678
:10054000084313D0114653EA010019D0C8F1400204
:100550005046FFF7C0FF05460E46504659464246F4
:10056000FFF7AAFF084305D0012004E020463946E2
:10057000BDE8F08D0020054346EAE0762C43374382
:100580000A986305E40AA0EB08000022FD0A44EA89
:1005900047540A3002D500200146E9E70105101949
:1005A0006941DDE9084500196941BDE8F04DA2E760
:1005B000064C074D06E0E06840F0010394E80700B0
:1005C00098471034AC42F6D3FFF7E2FD7488000878
:1005D0009488000870B58C1810F8015B15F00703BB
:1005E00001D110F8013B2A1106D110F8012B03E0CC
:1005F00010F8016B01F8016B5B1EF9D12B0705D4D4
:100600000023521E0DD401F8013BFAE710F8013B1C
:10061000CB1A921C03E013F8015B01F8015B521E38
:10062000F9D5A142D8D3002070BDFEE7014800F003
:1006300095BC000048190020014800F08FBC000064
:100640004819002010B5002958D0826B4FF4D87398
:10065000046803EB0113E45814F004049460046884
:10066000E4584DD0E40854600468E35803F00203F2
:10067000D3604FF4DA73046803EB0113E45804F019
:100680000F04146111620468E358C3F30723D361B4
:100690004FF4DC73046803EB0113E4581475046829
:1006A000E458240A54750468E458240C94750468CA
:1006B000E3581B0ED3754FF4DE73046803EB01138C
:1006C000E45814760468E458240A54760468E4581C
:1006D000240C94760468E3581B0ED376036820221A
:1006E00089B11A610268536923F05003536190F88D
:1006F0003C20222A0DD0322A0BD00FE0426BA5E716
:10070000640D1460B0E7DA600268536923F00A03ED
:10071000ECE70268536923F40F435361122201236B
:10072000002990F83C1006D0522915D0622916D025
:10073000722906D115E042290ED0622908D072290B
:1007400008D080F83C3000BF00F01AFF002010BD38
:10075000322107E0522105E080F83C20F4E7222115
:1007600000E0422180F83C10EEE7000010B505F0F3
:100770000BFD012805D005F007FD022804D000205C
:1007800010BD1648407A10BD4FF40074204606F0A4
:10079000F5F9134A630028B1184606F0F9F908B1D3
:1007A000032008E0184606F0E9F930B1204606F0CB
:1007B000EFF910B1012010700DE0184606F0E8F9CD
:1007C00048B1204606F0E4F928B1202006F0D6F919
:1007D00008B1022010BD107810BD0000C20B00202F
:1007E0007400002010B50A88C2F30A0202804A7819
:1007F0008B78D20842EA4312C2F30A0242808A7816
:10080000CB78920942EA83020B7942EA8322C2F34F
:100810000A0282800A794B79520842EAC312C2F373
:100820000A02C2804A79920902724A79C2F301121D
:100830004272CA8842810A8982814A89C2810A7BBE
:1008400002744A7B4274C989418201F0E3FC044985
:1008500008604A68821AB2F5FA7F00D9486010BD74
:100860001C00002000F0B0B8B0F900007047000094
:100870000A480B4990ED070AD0ED060A90ED071AD9
:1008800030EE200AD1ED0F0A70EEC10A30EE600A98
:10089000D0ED090A30EE200A704700008C060020D7
:1008A000480B0020014800F0FFBF0000781C00202A
:1008B000014800F0F9BF0000B81B0020014800F01B
:1008C000F3BF0000181C002001681823CAB2103AB8
:1008D000B2FBF3F2054B6FF30901032A9B5CC3657E
:1008E00000D9091D8165084670470000CC870008C3
:1008F00010B5014600208B698A6A4FF0C07453B16D
:10090000B3F5005F15D072B1012A0CD0022A0AD0CB
:10091000032A09D104E01AB1012A06D0022A03D120
:10092000C96AC90100D5012010BDC96AA142FAD027
:1009300010BD002AF7D0012AF2D0022AF3D0032AF0
:10094000F3D010BD30B50468256825F480252560F6
:10095000046863608368402B036803D09960006873
:10096000C26030BD9A600068C16030BD704700EB66
:1009700080004000401EFDD27047704700B505F072
:1009800003FC012803D005F0FFFB002000BD014857
:10099000007A00BDC20B002003788B5411444378C9
:1009A0004B7082788A70C078C870704710B5D0EDEF
:1009B000000A91ED000A034804F0F0F9014890EDB7
:1009C000120A10BD100600200D4801780D480129BB
:1009D00005D002290AD000231A4619460CE0B0F9C6
:1009E0000A30B0F90820B0F9061005E0B0F904307B
:1009F000B0F90220B0F90010034804F0B1BA0000C9
:100A0000140000201007002048190020496B898A33
:100A100049BA016001688180016881818169491C4E
:100A200081610168DFED070A00EE101AB8EEC00A16
:100A300020EE200ADFED040A20EE200A80ED080AED
:100A4000704700000000B4430000003910B58288F0
:100A500082814A6B928A52BA82804A6B937DD28A93
:100A60001C064FF0240352BA06D54FF6FF74A21AA3
:100A7000D24392FBF3F201E0B2FBF3F2C2804A6B85
:100A8000128B52BA0281496B897E81728188B0F9DA
:100A90000C20891A0161016941F64C52D14202DAF7
:100AA0004169491C06E0016941F64C52914202DD60
:100AB0004169491E41618188426901EB4231C1614E
:100AC00081880268DFED0B0A891A00EE101A41696D
:100AD000B8EEC00A60EE200A4FF4B472514300EE43
:100AE000101A9FED051AB8EEC00A00EE810A80EDDB
:100AF000090A10BD0000B4430000003910B5828817
:100B000082814A6B928A52BA82804A6B937DD28AE2
:100B10001C064FF0130352BA06D54FF6FF74A21A03
:100B2000D24392FBF3F201E0B2FBF3F2C2804A6BD4
:100B3000128B52BA0281496B897E817210BD00000E
:100B4000828882814A6B928A52BA82804A6B937DF4
:100B5000D28A1B0652BA03D54FF6FF739A1AD243B4
:100B6000C2804A6B128B52BA0281496B897E8172B4
:100B70008188B0F90C20891A0161016941F64C5253
:100B8000D14202DA4169491C06E0016941F64C5242
:100B9000914202DD4169491E41618188426901EB50
:100BA0004231C16181880268DFED0B0A891A00EECB
:100BB000101A4169B8EEC00A60EE200A4FF4B47210
:100BC000514300EE101A9FED051AB8EEC00A00EE70
:100BD000810A80ED090A70470000B4430000003923
:100BE00010B5224B18223421502003F08DFD1F48F0
:100BF000807D002838D01D4C443C04F15A0094ED0F
:100C0000070A84ED0A0AFFF72FFE00EE100ADFED57
:100C1000180A1949B8EEC00A20EE200ADFED150ABD
:100C200020EE200A84ED070AD4ED0A0A70EE600A6D
:100C300010EE900A884202D9606B401C06E010EE6C
:100C4000900A0E49884202DD606B401E6063D4ED5D
:100C50000D0A9FED0B1AF8EEE00A00EE810A84ED12
:100C60000F0AFFF705FE012010BD00008C0B0020CD
:100C70000000003800003443000096C30000964393
:100C80000000B44310B505F07FFA012804D005F048
:100C90007BFA022805D076E03C484088A0F58060C9
:100CA00066E0012005F06AFF40F2DC5470B11020CC
:100CB00005F06EFF50B12146354806F089FC3448F6
:100CC000143806F069FCDFED330A11E0022005F06C
:100CD00055FFA0B1102005F05BFF80B12C482146E4
:100CE000143806F075FC2A4806F056FCDFED2A0A97
:100CF00020EE200ABDEEC00A10EE100A38E00120F6
:100D000005F03CFFA0B1102005F038FF80B121466E
:100D10001F4806F05DFC1E48143806F03DFC10EE3E
:100D2000100AFFF7B6FB41EC100B9FED1C1B17E000
:100D3000022005F023FFE8B1102005F01FFFC8B125
:100D400013482146143806F043FC114806F024FCF1
:100D500010EE100AFFF79DFB41EC100B9FED111BED
:100D600051EC100B53EC112BFFF702FBFFF772FB5A
:100D700000B210BD06482146143806F029FC214671
:100D8000034806F025FC002010BD0000C20B002027
:100D90008C00002000002044000020C4000000005F
:100DA00000008D400000000000008DC010B54869B3
:100DB0000C461B2804D940F26D1154A004F0E4FF46
:100DC000A06930B1012804D04FF4B7714FA004F0EE
:100DD000DBFFE06930B1012804D040F26F114BA075
:100DE00004F0D2FF206930B1012804D04FF4B8716B
:100DF00046A004F0C9FF206A30B1012804D040F2B7
:100E0000711142A004F0C0FF606A1C2804D94FF49D
:100E1000B9713EA004F0B8FF207D0121814049480E
:100E2000D0F8002242F00102C0F80022D0F80022DF
:100E300022F47C52C0F80022D0F80022636A42EA11
:100E40000322C0F80022D0F81C228A43C0F81C22DA
:100E5000E269B2B9D0F80C228A43C0F80C22A38907
:100E6000626863F31F42636900EBC303C3F8402267
:100E70002389226863F31F42636900EBC303C3F84D
:100E80004422E269012A16D1D0F80C220A43C0F8A4
:100E90000C222388626863F31F42636900EBC3037B
:100EA000C3F840222389E26863F31F42636900EBC1
:100EB000C303C3F84422A269002AD0F8042206D052
:100EC00052EA0102C0F80422226912B106E08A4304
:100ED000F8E7D0F814228A43C0F814222269012AC4
:100EE00004D1D0F814220A43C0F81422226A012A3D
:100EF00004D1D0F81C220A43C0F81C22D0F80012FA
:100F000021F00101C0F80012002010BD2E2E2F4448
:100F10007269766572732F53544D33324634787844
:100F20005F48414C5F4472697665722F5372632F3C
:100F300073746D3332663478785F68616C5F6361B7
:100F40006E2E63000064004003480068416941F070
:100F50000201416170470000481900202DE9F0416D
:100F6000044600680026C168C1F300134169C1F35B
:100F7000C002102113B10AB14E01C160206802699C
:100F80004369C2F30012C3F380131AB113B146F4DC
:100F900080660161216848694FF00105C043C007C0
:100FA0004ED18A687648904323D000208B68754ADA
:100FB0009A4320D000228F68734BBB431DD000237F
:100FC000104318433CD088688A68C0F340008B689F
:100FD000C2F34022C3F340431043184329D04A6967
:100FE000204622F001024A6194F83C10122906D0F2
:100FF0000AE00120DAE70122DDE70123E0E70168EA
:101000004A6922F40F424A6190F83C10422908D004
:10101000522908D0722908D080F83C5000F030FCEA
:1010200009E0222102E0322100E0622180F83C1038
:10103000F4E746F4006620688168544A11438160F1
:101040002168C868496910F0030FC1F3400104D05A
:1010500019B100212046FFF7F5FA216808694969AE
:1010600010F0030FC1F3001104D019B10121204683
:10107000FFF7E8FA206C30432064206881694269F8
:1010800011F0010F4369C2F30022C3F3C03305D04E
:1010900022B11BB1216C41F0010121648169C1F3CE
:1010A00040034169C1F340224169C1F3C0312BB112
:1010B00022B119B1216C41F0020121648169C1F3AF
:1010C000800341694269C1F38021C2F3C0322BB170
:1010D00021B11AB1216C41F004012164816911F040
:1010E000700F08D000224169C1F3C0234169C1F3E8
:1010F000C03112B121E00122F5E7F3B1E9B1816914
:1011000001F0700140292FD006DC102909D02029D8
:101110000BD030290DD123E0502929D0602908D1E6
:101120002AE0216C41F0080102E0216C41F010013D
:101130002164816921F070018161206C00280DD04B
:1011400021680420486084F83C502068416948F6D2
:101150005B72914341612046FFF7F6FEBDE8F081E6
:10116000216C41F02001E3E7216C41F04001DFE711
:10117000216C41F08001DBE7216C41F48071D7E7FD
:10118000030000040003000800000310190501001B
:101190002DE9F041040077D088492068884206D0C4
:1011A0008749884203D0B92186A004F0EDFDA069EB
:1011B00028B1012803D0BA2182A004F0E5FDE0693E
:1011C00028B1012803D0BB217EA004F0DDFD206AF8
:1011D00028B1012803D0BC217AA004F0D5FD606AB3
:1011E00028B1012803D0BD2176A004F0CDFDA06A6E
:1011F00028B1012803D0BE2172A004F0C5FDE06A29
:1012000028B1012803D0BF216EA004F0BDFDA06865
:1012100060B1B0F1804F09D0B0F1004F06D0B0F10D
:10122000404F03D0C02167A004F0AEFDE06860B17C
:10123000B0F1807F09D0B0F1007F06D0B0F1407FDF
:1012400003D0C1215FA004F09FFD2069B0F5702F8D
:1012500003D9C2215BA004F097FD6069B0F5E00FEF
:1012600003D9C32157A004F08FFD6068401EB0F57C
:10127000806F03D3C42153A004F086FD94F83C0092
:10128000002520B108E0FFE70120BDE8F08184F8E7
:101290003D50204600F0B2F8022084F83C0020685F
:1012A000016821F0020101602068016841F001013C
:1012B000016000F0AFFF0746032604E000F0AAFF3C
:1012C000C01B0A2863D820684068C007F6D0206891
:1012D0004168C90768D0A169012901683FD021F0A0
:1012E00080010160E0690128206801683AD021F09E
:1012F00040010160206A01282068016835D021F092
:1013000020010160606A01282068016830D021F066
:1013100010010160A06A0128206801682BD021F02B
:1013200008010160E06A01282068016826D021F0E8
:1013300004010160D4E902010843D4E90412114315
:1013400008436168491E08432168C8612068016834
:1013500021F00101016000F05DFF07461CE041F053
:101360008001BEE741F04001C3E741F02001C8E73A
:1013700041F01001CDE741F00801D2E741F004014E
:10138000D7E700BF00F046FFC01B0A2804D904F8C5
:101390003C6F0320657078E720684068C007F1D192
:1013A00020684068C00703D0042084F83C006BE745
:1013B0002564012084F83C00002066E700640040BA
:1013C000006800402E2E2F447269766572732F5389
:1013D000544D3332463478785F48414C5F447269EB
:1013E0007665722F5372632F73746D33326634785F
:1013F000785F68616C5F63616E2E630010B586B0C4
:10140000044614216846FEF798FF1C49206888426C
:1014100031D11B480021026842F00072026000686E
:1014200000F00070059016481038026842F0010282
:101430000260006800F0010005904FF4C050009079
:101440000220CDE9010103200390092004906946A0
:101450000C4800F023FD00220521132001F0C0F804
:10146000132001F08DF800220521142001F0B8F8B6
:10147000142001F085F806B010BD000000640040A3
:10148000403802400000024070B50D00044610D004
:10149000012D05D040F2F3312BA004F075FC18E0CB
:1014A00094F83C00322828D094F83C00522824D0EC
:1014B00007E094F83C0022281FD094F83C00422812
:1014C0001BD094F83C00622817D094F83C00722896
:1014D00013D094F83D0001280FD0012084F83D007E
:1014E000622094F83C2072214DB1122A11D0222A98
:1014F00010D0422A11D032200CE0022070BD122AF6
:1015000005D0322A06D0522A07D0222002E04220FB
:1015100000E0522084F83C0001E084F83C100020F8
:10152000206421684A6948F601731A434A6184F8C5
:101530003D002068416925B141F050014161002022
:1015400070BD41F00A01F9E72E2E2F4472697665CD
:1015500072732F53544D3332463478785F48414C80
:101560005F4472697665722F5372632F73746D33A3
:1015700032663478785F68616C5F63616E2E6300F9
:1015800070B5274C05466068401C606000F042FE64
:10159000A168401AB0F5FA7F02D900F03BFEA060C6
:1015A000686B0268A2F20122072A31D2DFE802F05A
:1015B000040404040F192700D0B22070194900EB6D
:1015C000800001EBC0002946FFF798FA20E0606830
:1015D0002946322802D81348C83808E0114878381C
:1015E0000AE060682946322804D80E48A038FFF780
:1015F0000DFA0DE00B485038FFF7A2FA08E06068DA
:10160000294632280748A0F12800F0D9FFF71EFA32
:1016100005480068416941F00201416170BD000068
:10162000000000202C020020481900202DE9F05F66
:101630000446006B0F46806830B1042804D04FF494
:101640000E717EA004F0A0FB206BC06830B10228B0
:1016500004D040F2392179A004F096FB206B006998
:10166000082804D940F23A2174A004F08DFB2068C8
:101670008168490105D48168090102D48168C900E3
:101680007ED594F83D1001290DD04FF0010884F863
:101690003D8094F83C10222908D0322908D06229D4
:1016A0000ED0122105E00220BDE8F09F422100E0AB
:1016B000522184F83C108168490103D5002507E0D8
:1016C0007221F6E78168090101D5012500E00225B4
:1016D0004FF4C07101EB0516815901F001018151F0
:1016E000206B816800294FD04068B0F1005F04D3BF
:1016F0004FF41B7151A004F047FB21688A59206BFD
:1017000083681A43C368406843EAC00002438A51B1
:10171000206B017C01F00F0101614FF4C270216860
:1017200000EB05100A5822F00F020A5021680A58EF
:10173000236B1B691A430A50206B4FF4C47202EBEF
:101740000512017DD0F8150041EA0020216888507B
:10175000206B4FF4C67202EB0512017ED0F819001F
:1017600041EA0021206881502068815941F001013F
:10177000815100F04FFD81460026DFF8F8A000E01F
:1017800057E0DFF8F4B02EE00068B0F5006F04D346
:1017900040F2662129A004F0F7FA20688259216BF3
:1017A000CB6809881A4342EA41518151B0E7781C5D
:1017B00019D02FB100F02EFDA0EB0900B84212D9CC
:1017C000032084F83C004DB1012D09D04FF40000F6
:1017D0002168886084F83D60032065E78020F7E792
:1017E0004FF40040F4E78DB12068012D816812D0DC
:1017F000224888430028DAD194F83C0042280DD0D2
:1018000052280DD0722812D040460AE02068816824
:101810002AEA0100EEE72BEA0100EBE7222000E0D4
:10182000322084F83C0084F83D6000203CE76220D0
:10183000F7E7042084F83C00012035E72E2E2F44E2
:101840007269766572732F53544D3332463478780B
:101850005F48414C5F4472697665722F5372632F03
:1018600073746D3332663478785F68616C5F63617E
:101870006E2E630003000004000300080000031044
:10188000704790F83510022903D08021416501206E
:101890007047052180F835100068016821F00101CA
:1018A00001600020704700002DE9F84304464FF026
:1018B0000009CDF8009063484FF41651A56D0068FB
:1018C000B0FBF1F72E6894F85C10082000FA01F1E3
:1018D00031420FD021680A6852070BD50A6822F0FE
:1018E00004020A6094F85C108840A860606D40F0C3
:1018F0000100606594F85C104FF0010808FA01F0EF
:10190000304208D021684969090604D5A860606D95
:1019100040F00200606594F85C100420884030427A
:1019200008D021680968890704D5A860606D40F077
:101930000400606594F85C1010208840304218D094
:1019400021680968090714D5A8602068016849035F
:1019500004D50068000308D5A16C07E00168C9053B
:1019600003D4016821F008010160216C09B120460F
:10197000884794F85C1020208840304231D021689C
:101980000968C9062DD5A86094F835000528206897
:10199000016806D0490347D5006800031DD4616C77
:1019A0001CE021F0160101602068416921F08001EE
:1019B0004161206C08B9A06C20B12068016821F059
:1019C0000801016094F85C103F208840A86084F80A
:1019D000349084F83580216D1FE0E16B09B1204619
:1019E0008847606D00282BD0606DC00714D005209B
:1019F00084F835002068016821F001010160009839
:101A0000401C0090B84203D820680068C007F6D197
:101A100084F8349084F83580E16C002910D001B04E
:101A20002046BDE8F04308470168C905D5D40168E0
:101A300021F01001016084F8349084F83580CCE7FF
:101A4000BDE8F883E40000202DE9F041044600F0F1
:101A5000E1FB0546002C7CD0A249206888423ED09C
:101A6000A049183188423AD09E493031884236D058
:101A70009C494831884232D09A49603188422ED000
:101A80009849783188422AD096499031884226D0A8
:101A90009449A831884222D0934988421FD0924964
:101AA000183188421BD090493031884217D08E4976
:101AB0004831884213D08C49603188420FD08A491E
:101AC000783188420BD088499031884207D08649C6
:101AD000A831884203D0C82184A004F055F9606879
:101AE000C0B1B0F1007F15D0B0F1806F12D0B0F16D
:101AF000C06F0FD0B0F1006F0CD0B0F1206F09D0E3
:101B0000B0F1406F06D0B0F1606F03D0C92177A06B
:101B100004F03AF9A06838B1402805D0802803D0F5
:101B2000CA2172A004F030F9E068B0F5007F04D05B
:101B300018B1CB216DA004F027F92069B0F5806FB2
:101B400004D018B1CC2169A004F01EF9606958B125
:101B500000E071E0B0F5006F06D0B0F5805F03D013
:101B6000CD2162A004F010F9A06948B1B0F5005F82
:101B700006D0B0F5804F03D0CE215CA004F004F96C
:101B8000E06940B1B0F5807F05D0202803D0CF2197
:101B900056A004F0F9F8206A60B1B0F5803F09D092
:101BA000B0F5003F06D0B0F5403F03D0D0214FA0A4
:101BB00004F0EAF8606A002832D0042806D0D12167
:101BC0004AA004F0E1F8606A002829D0A06A48B170
:101BD000012807D0022805D0032803D0D62143A02E
:101BE00004F0D2F8E06A60B1B0F5000F09D0B0F1AE
:101BF000807F06D0B0F1C07F03D0D7213BA004F096
:101C0000C3F8206B60B1B0F5001F09D0B0F5800FAC
:101C100006D0B0F5C00F03D0D82134A004F0B4F83A
:101C2000002684F83460022084F8350020680168BA
:101C300021F0010101600EE00120BDE8F08100BF4C
:101C400000F0E8FA401B052805D920206065032034
:101C500084F83500F1E720680068C007F0D12268F9
:101C6000116830480140D4E901031843D4E9033531
:101C70002B43184363691843A3691843E369184366
:101C8000236A18430843616A042903D1D4E90B137A
:101C900019430843106020684069656A20F0070115
:101CA00028460D43012704280CD1A06A0543E06AA9
:101CB00040B12046FEF71CFE20B14020606584F84C
:101CC0003570B9E7206845612046FEF7FDFD94F8C0
:101CD0005C203F2191408160666584F8357000206A
:101CE000ABE7000010600240106402402E2E2F442B
:101CF0007269766572732F53544D33324634787857
:101D00005F48414C5F4472697665722F5372632F4E
:101D100073746D3332663478785F68616C5F646DBC
:101D2000612E63003F8010F02DE9F04188460446A3
:101D30000025581E4FF6FF711E461746884204D3F1
:101D400040F2A51113A004F01FF894F83400012804
:101D50000DD0012084F8340094F8351000200129BA
:101D600007D084F8340002252846BDE8F08102201F
:101D7000FBE7022184F83510606533463A46414658
:101D80002046FEF7DFFD2068016841F00101016097
:101D9000EAE700002E2E2F447269766572732F5386
:101DA000544D3332463478785F48414C5F44726911
:101DB0007665722F5372632F73746D333266347885
:101DC000785F68616C5F646D612E63002DE9F04798
:101DD00089460446876D0025581E4FF6FF711E4642
:101DE0009046884204D34FF4EA711EA003F0CCFF62
:101DF00094F8340001280DD0012084F8340094F8C0
:101E000035100020012907D084F834000225284627
:101E1000BDE8F0870220FBE7022184F835106065F9
:101E20003346424649462046FEF78CFD94F85C1046
:101E30003F208840B8602068016841F016010160C9
:101E40002068416941F080014161206C20B1206827
:101E5000016841F0080101602068016841F001015A
:101E60000160D4E72E2E2F447269766572732F536A
:101E7000544D3332463478785F48414C5F44726940
:101E80007665722F5372632F73746D3332663478B4
:101E9000785F68616C5F646D612E63002DE9F84FB7
:101EA0000446A0480D4684421BD09F48844218D067
:101EB0009E48844215D09E48844212D09D48844258
:101EC0000FD09D4884420CD09C48844209D09C4845
:101ED000844206D09B48844203D0C3219AA003F0D9
:101EE00053FF28680104090C01D0000C03D0C42161
:101EF00095A003F049FF6868F8B101281DD01128AA
:101F00001BD0022819D0122817D09E49884214D01D
:101F10009D49884211D09D4988420ED09C498842F3
:101F20000BD09C49884208D09B49884205D00328A1
:101F300003D0C52184A003F027FFA86838B1012889
:101F400005D0022803D0C6217FA003F01DFF002684
:101F50004FF0010B0BFA06F02F68824607405745F9
:101F60007ED16868022801D012282ED12869F8B1E4
:101F700009281DD001281BD0022819D0032817D00A
:101F8000042815D0052813D0062811D007280FD013
:101F900008280DD00A280BD00B2809D00C2807D010
:101FA0000D2805D00F2803D0D72167A003F0ECFE41
:101FB000F00804EB8002106A7107CB0E0F219940E4
:101FC0008843296999400143116220687200032106
:101FD00001FA02F82979914601F0030120EA08008C
:101FE00001FA09F1014321606868012805D002283F
:101FF00003D0112801D012281CD1E86848B101286B
:1020000007D0022805D0032803D0EA214EA003F010
:10201000BBFEA068E96820EA080001FA09F1014363
:10202000A1606068297920EA0A00C1F30011B1407B
:1020300001436160E068A96820EA080001FA09F13B
:102040000143E1606868C00065D55448016841F407
:1020500080410160006826F0030100F4804000E048
:1020600059E000904E480A18D2F80808B1070B0F43
:102070000F21994088432B498C4201D1002123E054
:1020800029498C4201D101211EE028498C4201D10D
:10209000022119E026498C4201D1032114E025498F
:1020A0008C4201D104210FE023498C4201D105214A
:1020B0000AE022498C4201D1062105E020498C42E8
:1020C00001D1072100E0082199400143C2F8081816
:1020D000344908686A68B843D20300D538430860B9
:1020E0003049091D08686A68B843920300D538432F
:1020F00008602C49083108686A68B843D20200D5E4
:102100003843086027490C3108686A68B84392026E
:1021100000D538430860761C102EFFF41BAFBDE8D5
:10212000F88F000000000240000402400008024056
:10213000000C02400010024000140240001802404F
:10214000001C0240002002402E2E2F44726976654A
:1021500072732F53544D3332463478785F48414C74
:102160005F4472697665722F5372632F73746D3397
:1021700032663478785F68616C5F6770696F2E6370
:1021800000000000000011100000211000003110BC
:1021900000001210000022100000321044380240EB
:1021A00000300140003C014070B515460C00064669
:1021B00004D140F2AF1108A003F0E6FD45B1012DB6
:1021C00004D04FF4D87104A003F0DEFDB46170BDFB
:1021D0002004B06170BD00002E2E2F447269766518
:1021E00072732F53544D3332463478785F48414CE4
:1021F0005F4472697665722F5372632F73746D3307
:1022000032663478785F68616C5F6770696F2E63DF
:10221000000000000148006870470000E000002056
:1022200070B504005FD06C49206888420AD06B49C1
:10223000884207D06A49884204D04FF4B77169A038
:1022400003F0A2FD60687549401E884204D940F23F
:102250006F1164A003F098FDA0684FF4804530B181
:10226000A84204D04FF4B8715EA003F08DFDE06881
:10227000800A04D040F271115AA003F085FD206954
:10228000A84207D0B0F5404F04D04FF4B97155A023
:1022900003F07AFD606930B1012804D040F2731177
:1022A00050A003F071FDA06930F0FE0004D04FF49F
:1022B000BA714CA003F068FDE06930B1402804D049
:1022C00040F2751147A003F05FFD206A30B180280D
:1022D00004D04FF4BB7143A003F056FD94F83D00C9
:1022E000002510B106E0012070BD84F83C50204666
:1022F00000F09AF8242084F83D002068016821F05D
:102300000101016000F040FB45492268B0FBF1F19A
:102310005160444A6368934206D94FF49673594317
:102320004FF47A73B1FBF3F12368491C19626168B9
:1023300091420BD84900B0FBF1F2C2F30B02042A20
:1023400001D204201AE0B0FBF1F017E0A368A3B3B8
:1023500001EBC10202EB0112B0FBF2F242F4804247
:10236000120531D053B301EBC10202EB0111B0FBF6
:10237000F1F040F4804000BF40F400402168C861A3
:10238000D4E90701084321680860D4E90310084331
:1023900021688860D4E9050108432168C860206885
:1023A000016841F0010101602564202084F83D00AE
:1023B000256384F83E50002070BD00E006E001EB8C
:1023C0004102B0FBF2F2CBE70120D7E701EB41017C
:1023D000B0FBF1F0D0E7000000540040005800408E
:1023E000005C00402E2E2F447269766572732F5365
:1023F000544D3332463478785F48414C5F447269BB
:102400007665722F5372632F73746D33326634782E
:10241000785F68616C5F6932632E63007F1A060023
:1024200040420F00A086010010B586B0044614217A
:102430006846FDF782FF13492068884220D1124880
:10244000016841F0020101600068694600F0020085
:102450000590C020009012200190012002900320DE
:102460000390042004900948FFF718FD0648103037
:10247000016841F400110160006800F4001005904B
:1024800006B010BD00540040303802400004024045
:1024900002480168491C016070470000E00000200C
:1024A0000B4810B5016841F400710160016841F406
:1024B00080610160016841F480710160032000F0D7
:1024C000DFF8002000F006F800F03EF8002010BD14
:1024D000003C024010B5014688B00022362000F0D2
:1024E0007FF8362000F04CF813480024016841F0D2
:1024F00010010160006805A900F010000690684610
:1025000000F022FA00F040FA0C494000B0FBF1F173
:102510000C480B4A491E026040F2E732C0E903242E
:10252000C0E9011400F024FD10B1012008B010BD75
:10253000044800F0FDFDF9E74038024040420F003A
:1025400000100040D81C00200C4882B0016841F403
:1025500080410160006800F4804000900748001F3F
:10256000016841F0805101600068002200F0805055
:1025700000900F21901E02B000F032B844380240A3
:1025800010B5040003D5CE2106A003F0FDFB04F036
:102590001F01012088406109890001F1E021C1F893
:1025A000000110BD2E2E2F447269766572732F5371
:1025B000544D3332463478785F48414C5F447269F9
:1025C0007665722F5372632F73746D33326634786D
:1025D000785F68616C5F636F727465782E6300006A
:1025E00070B515460C460646102A03D3BA2114A02E
:1025F00003F0CAFB102C03D3BB2111A003F0C4FBD2
:102600001E480068C0F30223C3F107022046042AD3
:1026100000D90422191D072901D2002300E0DB1E86
:10262000012404FA02F1491E014099409C40641EB5
:102630002C4021433046BDE8704002F09FBB0000B3
:102640002E2E2F447269766572732F53544D333298
:10265000463478785F48414C5F4472697665722FE2
:102660005372632F73746D3332663478785F6861A8
:102670006C5F636F727465782E6300000CED00E090
:1026800010B5044607280BD0062C09D0052C07D01E
:10269000042C05D0032C03D0A22108A003F074FB66
:1026A000154904F0070208684FF6FF03184040EA96
:1026B0000220124A1043086010BD00002E2E2F4445
:1026C0007269766572732F53544D3332463478787D
:1026D0005F48414C5F4472697665722F5372632F75
:1026E00073746D3332663478785F68616C5F636FE2
:1026F000727465782E6300000CED00E00000FA05AE
:102700002DE9F0470E4604007DD02068401E0E28BB
:1027100004D94FF410717AA003F036FB96B1012E64
:1027200010D0022E0ED0032E0CD0042E0AD0052E6F
:1027300008D0062E06D0072E04D040F2412170A00A
:1027400003F022FBDFF8F081D8F80000F7B200F0C8
:102750000F00B04207D288F80070D8F8000000F0EF
:102760000F00B0424FD12068744D810729D5400732
:1027700003D5286840F4E05028602078000703D58E
:10278000286840F460402860A068A0B1802812D07A
:10279000902810D0A0280ED0B0280CD0C0280AD085
:1027A000D02808D0E02806D0F02804D04FF41971C2
:1027B00053A003F0E9FA2868A16820F0F00008436C
:1027C00028602078C00743D0DFF870916068A9F1D5
:1027D000080988B1012822D0022824D0032822D059
:1027E00040F26B2146A003F0CFFA6068012816D0B2
:1027F000022818D0032816D0D9F800008007002836
:1028000033DA286800E030E0616820F00300084314
:102810002860FFF7FFFC814641F2883A11E0D9F8C1
:1028200000008003EBE7D9F800008001E7E700BF74
:10283000FFF7F0FCA0EB0901514502D90320BDE8E8
:10284000F0872868616800F00C00B0EB810FEFD1D1
:10285000D8F80010404601F00F01B14207D90770C7
:10286000006800F00F00B04201D00120E7E72078B7
:102870004FF4805640074FF4A0574FF4C0584FF420
:10288000E05914D5E06860B1B0420AD0B84208D02F
:10289000404506D0484504D040F2A92118A003F0D5
:1028A00073FA2868E16820F4E05008432860207833
:1028B000000715D5206960B1B0420AD0B84208D0EF
:1028C000404506D0484504D04FF42C710CA003F0CD
:1028D0005BFA2868216920F4604040EAC100286062
:1028E00000F072F82968164AC1F30311515CC84020
:1028F000144908600020FFF7EDFD00209FE700006D
:102900002E2E2F447269766572732F53544D3332D5
:10291000463478785F48414C5F4472697665722F1F
:102920005372632F73746D3332663478785F6861E5
:102930006C5F7263632E6300003C02400838024003
:10294000D4870008E40000200F2202600C4A1368BC
:1029500003F003034360136803F0F003836013681C
:1029600003F4E053C36012684FF4E05303EAD20269
:1029700002610448006800F00F0008607047000022
:1029800008380240003C02400448054900680968D4
:10299000044AC1F38221515CC8407047E400002022
:1029A00008380240E48700080448054900680968BF
:1029B000044AC1F34231515CC8407047E400002032
:1029C00008380240E4870008154810B5006810F088
:1029D0000C02144813D04110042A0FD0082A0ED13B
:1029E0000F4C241F2268236802F03F025B0207D5C8
:1029F0002068C0F38810A0FB010106E0084610BD66
:102A00002168C1F38811A1FB00010023FDF738FC08
:102A10002168C1F30141491C4900B0FBF1F010BD30
:102A2000083802400024F4002DE9F84F04007DD05E
:102A300020680F2803D9F821F0A003F0A5F9DFF8EA
:102A4000F4932078A9F1040BC007ABF1040555D02D
:102A500060684FF480364FF4A02738B1B04205D0FB
:102A6000B84203D0FD21E5A003F08EF9D9F800109B
:102A70004846C1F38101012908D00068C0F38100F4
:102A800002280AD1DBF80000400206D5286880033E
:102A900034D560680028CAD030E06068B04203D105
:102AA000286840F480300CE0B842286803D140F434
:102AB00080202860F4E720F480302860286820F423
:102AC00080202860606860B1FFF7A4FB064604E040
:102AD000FFF7A0FB801B64287DD828688003F7D50A
:102AE0000CE0FFF797FB064605E000BFFFF792FBFF
:102AF000801B6428F0D828688003F7D42078CE4F54
:102B000080074FF0010A4FF000084FD5E06830B160
:102B1000012804D040F22F11B8A003F035F9206944
:102B20001F2806D94FF49871B4A000E091E003F09B
:102B30002BF9D9F80010484611F00C0F08D00068A6
:102B4000C0F3810002280AD1DBF80000400206D45D
:102B50002868800714D5E06801287AD110E0E06881
:102B6000B0B1C7F800A0FFF755FB064605E000BF6F
:102B7000FFF750FB801B0228AED828688007F7D5E6
:102B80002868216920F0F80040EAC10028600DE0C3
:102B9000C7F80080FFF73EFB064604E0FFF73AFB6C
:102BA000801B022898D828688007F7D4207800076F
:102BB0002ED5A24E6069D0B1012806D04FF4B8716D
:102BC0008EA003F0E1F8606988B1C6F800A0FFF7B5
:102BD00021FB064605E006E1FFF71CFB801B0228EF
:102BE00088D894486C3000688007F5D510E0C6F8A6
:102BF0000080FFF70FFB064605E000BFFFF70AFB6A
:102C0000801B0228B8D88B486C3000688007F5D448
:102C1000207840075FD5A06840B1012806D005287C
:102C200004D04FF4CD7175A003F0AEF88148383070
:102C3000016841F080510160006800F08050009010
:102C40007F48016841F480710160FFF7E3FA0646AE
:102C500005E0CBE0FFF7DEFA801B02288CD878482D
:102C60000068C005F6D5734EA068683601280FD0FD
:102C70000528306810D020F001003060306820F066
:102C800004003060A068B8B1FFF7C4FA00900FE00C
:102C9000306840F00100F4E740F004003060F7E7EE
:102CA000FFF7B8FA0099411A41F28830814297D86B
:102CB00030688007F4D50EE0FFF7ACFA009007E02B
:102CC000FFF7A8FA0099411A41F28830814287D86B
:102CD00030688007F4D4A069002873D0012809D097
:102CE000022807D040F2CF1144A003F04DF8A069AC
:102CF00000287FD0D9F80000C0F3810002287BD0E3
:102D0000A069022805D0C7F86080FFF783FA04465F
:102D10006DE0E06938B1B0F5800F04D04FF4EC718C
:102D200036A003F031F8206A3F2804D940F2D911C7
:102D300032A003F029F8606A3238B0F5BF7F04D9B9
:102D40004FF4ED712DA003F01FF8A06A02280AD0FD
:102D5000042808D0062806D0082804D040F2DB1149
:102D600026A003F011F8E06A801E0D2804D94FF464
:102D7000EE7122A003F008F8C7F86080FFF74AFA66
:102D8000064604E0FFF746FA801B02282BD8286885
:102D90008001F7D4D4E907010843A16A294A490808
:102DA00002EB0141626A41EA8211084394F82C1057
:102DB00040EA0161CBF80010C7F860A0FFF72AFADB
:102DC000044606E016E000BFFFF724FA001B0228C5
:102DD00009D828688001F7D50CE000BFFFF71AFA80
:102DE000001B022803D90320BDE8F88F04E02868FF
:102DF0008001F3D40020F7E70120F5E72E2E2F44C1
:102E00007269766572732F53544D33324634787835
:102E10005F48414C5F4472697665722F5372632F2D
:102E200073746D3332663478785F68616C5F726397
:102E3000632E63000838024000004742800E47427C
:102E4000007000400000FFFF7047704770B50D46EE
:102E5000044600683049884219D0B0F1804F16D03E
:102E60002E49884213D02E49884210D02D498842DD
:102E70000DD02D4988420AD02C49884207D02C49D0
:102E8000884204D040F24A612AA002F07DFF2868FF
:102E900090B1102810D020280ED030280CD0402817
:102EA0000AD0502808D0602806D0702804D040F2FC
:102EB0004B6120A002F068FF6868802805D020B12F
:102EC00040F24C611BA002F05FFF94F8380001282B
:102ED0001FD0012084F83800022184F839102168BD
:102EE0004A6822F070024A6021684A682B681A43D7
:102EF0004A6021688A6822F080028A6021688A68B4
:102F00006B681A438A6084F83900002084F838001E
:102F100070BD022070BD00000000014000040040B0
:102F200000080040000C0040001000400014004069
:102F3000000401402E2E2F447269766572732F5360
:102F4000544D3332463478785F48414C5F4472695F
:102F50007665722F5372632F73746D3332663478D3
:102F6000785F68616C5F74696D5F65782E630000DF
:102F700010B504004CD03048226882422AD0B2F109
:102F8000804F27D02D48824224D02D48824221D024
:102F90002C4882421ED02C4882421BD02B488242B1
:102FA00018D02B48824215D02A48824212D02A4893
:102FB00082420FD0294882420CD02948824209D04F
:102FC0002848824206D02848824203D0D72127A031
:102FD00002F0DAFEA06858B1102809D0202807D0E6
:102FE000402805D0602803D0D82120A002F0CCFED4
:102FF000206948B1B0F5807F06D0B0F5007F03D0DE
:10300000D9211AA002F0C0FE94F8390010B107E0EF
:10301000012010BD002084F83800204600F042F85E
:10302000022084F83900211D206802F087F8012071
:1030300084F83900002010BD000001400004004069
:1030400000080040000C0040001000400014004048
:10305000000401400040014000440140004801409C
:1030600000180040001C0040002000402E2E2F447D
:103070007269766572732F53544D333246347878C3
:103080005F48414C5F4472697665722F5372632FBB
:1030900073746D3332663478785F68616C5F74691D
:1030A0006D2E630008B51E4A01681E4891420ED17C
:1030B000016841F0020101600068002200F0020096
:1030C000009005211D20FFF78BFA1D2022E0164AF3
:1030D00091420ED1016841F00401016000680022B4
:1030E00000F00400009005211E20FFF779FA1E2051
:1030F00010E00E4A914211D1016841F008010160CF
:103100000068002200F00800009005213220FFF73F
:1031100067FA3220BDE80840FFF732BA08BD000068
:10312000000400404038024000080040000C00400D
:1031300010B5044601681D4881422BD0B1F1804F83
:1031400028D01B48814225D01A48814222D01A48F3
:1031500081421FD0194881421CD01948814219D0A0
:103160001848814216D01848814213D0174881422E
:1031700010D0174881420DD0164881420AD0164817
:10318000814207D01548814204D04FF4B17114A098
:1031900002F0FAFD2068C16841F00101C1602068B9
:1031A000016841F001010160002010BD00000140F4
:1031B0000004004000080040000C004000100040E7
:1031C0000014004000040140004001400044014060
:1031D0000048014000180040001C00400020004052
:1031E0002E2E2F447269766572732F53544D3332ED
:1031F000463478785F48414C5F4472697665722F37
:103200005372632F73746D3332663478785F6861FC
:103210006C5F74696D2E63002DE9F05F044690F8D1
:1032200038000D46012844D0012084F838000220DF
:1032300084F839002868B0F5805F16D0B0F5005FDB
:1032400013D090B1102810D020280ED030280CD0E8
:1032500040280AD0502808D0602806D0702804D012
:1032600040F67771F4A002F08FFD2068816821F0AC
:10327000770121F47F4181602868FD49FD4AFE4BBA
:10328000FE4EFF4FDFF8FC83DFF8FCB3DFF8FCE312
:10329000DFF8FC934FF0804C4FF4004A50287DD06B
:1032A0000FDC20287BD007DC002879D0102878D1CB
:1032B00097E10220BDE8F09F302873D04028F6D176
:1032C00039E160286FD070287AD0B0F5805F44D0A3
:1032D0004FF400584045EAD1206888420ED060453E
:1032E0000CD090420AD0984208D0B04206D0B842E2
:1032F00004D040F6A471D0A002F046FD68685045A5
:1033000009D040B1022806D00A2804D040F6A671A0
:10331000C9A002F039FDA86860B1B0F5805F09D09E
:10332000404507D0B0F5405F04D040F6A771C2A079
:1033300002F02AFDE8680F2804D940F6A871BEA063
:1033400002F022FDD5E90121EB68206801F0CEFFF3
:103350002068816841F4804173E0206888422AD067
:10336000604528D0904226D0984224D0B04222D046
:10337000C84988421FD0C84988421CD0B8421AD0D8
:10338000404518D0584516D0704514D0484512D045
:10339000C24988420FD0C249884206E053E039E171
:1033A00006E1C1E087E18BE00AE004D040F68371DA
:1033B000A1A002F0E9FC2068816821F0070140E04B
:1033C000206888420ED060450CD090420AD09842C6
:1033D00008D0B04206D0B84204D040F68C7196A016
:1033E00002F0D2FC6868504509D040B1022806D0EE
:1033F0000A2804D040F68E718FA002F0C5FCA868A0
:1034000068B1B0F5805F0AD0B0F5005F07D0B0F5C5
:10341000405F04D040F68F7187A002F0B5FCE868E9
:103420000F2804D94FF4796183A002F0ADFCD5E9EF
:103430000121EB68206801F059FF2068816841F0A4
:103440007701816070E0206888421CD060451AD006
:10345000904218D0984216D0B04214D0B84212D040
:10346000404510D058450ED070450CD048450AD084
:103470008A49884207D08A49884204D040F6B6710A
:103480006DA002F081FC6868504509D040B1022867
:1034900006D00A2804D040F6B97167A002F074FC87
:1034A000E8680F2804D940F6BA7163A002F06CFCFA
:1034B000EA686968206802F075F85021206831E0F8
:1034C0002068884212D0604510D090420ED09842B9
:1034D0000CD0B0420AD0B84208D0404506D048458A
:1034E00004D040F6C47154A002F04EFC6868504508
:1034F00009D040B1022806D00A2804D040F6C7718E
:103500004DA002F041FCE8680F2804D940F6C871CC
:1035100049A002F039FCEA686968206802F053F8B3
:103520006021206801F0ECFE012084F839000020C1
:1035300084F83800BEE6206888421CD060451AD066
:10354000904218D0984216D0B04214D0B84212D04F
:10355000404510D058450ED070450CD048450AD093
:103560004E49884207D04E49884204D040F6D27175
:1035700031A002F009FC6868504509D040B102282A
:1035800006D00A2804D040F6D5712BA002F0FCFB2F
:10359000E8680F2804D940F6D67127A002F0F4FBA2
:1035A000EA686968206801F0FDFF40212068B9E7FA
:1035B0002068884212D0604510D090420ED09842C8
:1035C0000CD0B0420AD0B84208D0404506D0484599
:1035D00004D04FF47E6118A002F0D6FB00212068D1
:1035E000A0E72068884212D0604510D090420ED0EB
:1035F00098420CD0B0420AD0B84208D0404506D01C
:10360000484504D040F6E6710BA002F0BDFB102146
:10361000206887E7206888424AD0604548D09042B9
:1036200046D0984244D0B04242D0B84240D0404503
:103630003ED048453CD035E02E2E2F447269766549
:1036400072732F53544D3332463478785F48414C6F
:103650005F4472697665722F5372632F73746D3392
:1036600032663478785F68616C5F74696D2E6300D0
:10367000000001400004004000080040000C004031
:103680000004014000400140004401400048014066
:10369000001800400010004000140040001C0040D2
:1036A0000020004040F6EC71AFF2740002F06CFBB9
:1036B0002021206836E72068884213D0604511D069
:1036C00090420FD098420DD0B0420BD0B84209D0F2
:1036D000404507D0484505D040F6F271AFF2A8004A
:1036E00002F052FB302120681CE7704770B5044699
:1036F000006801694FF00005C943890715D4C16806
:10370000C943890711D4E91E016101202076206890
:1037100080698007204602D0FFF7E7FF04E000F051
:10372000C3F8204600F09FFA257620680169C94356
:10373000490717D4C168C943490713D46FF004017E
:103740000161022020762068806910F4407F2046C5
:1037500002D0FFF7CAFF04E000F0A6F8204600F010
:1037600082FA257620680169C943090716D4C16821
:10377000C943090712D46FF00801016104202076C3
:103780002068C0698007204602D0FFF7AEFF04E042
:1037900000F08AF8204600F066FA25762068016974
:1037A000C943C90617D4C168C943C90613D46FF009
:1037B00010010161082020762068C06910F4407F64
:1037C000204602D0FFF791FF04E000F06DF820469C
:1037D00000F049FA257620680169C943C90708D174
:1037E000C168C943C90704D1891E0161204600F0A0
:1037F000EBFA20680169C943090609D4C168C943C5
:10380000090605D46FF0800101612046FFF71CFB1B
:1038100020680169C943490609D4C168C9434906FA
:1038200005D46FF040010161204600F0E3FA206802
:103830000169C94389060BD4C168C943890607D405
:103840006FF0200101612046BDE87040FFF7FDBA2E
:1038500070BD000010B586B0044614216846FCF720
:103860006CFD0E492068884216D10D48002102687F
:1038700042F008020260006800F0080005904FF472
:10388000805000901220CDE901010220CDE9031003
:1038900069460448FEF702FB06B010BD0008004070
:1038A00030380240000C0240704700002DE9F05F04
:1038B000044690F8380092460D4601284ED04FF04D
:1038C000010B84F838B0BAF1000F10D0BAF1040F30
:1038D0000DD0BAF1080F0AD0BAF10C0F07D0BAF127
:1038E000180F04D040F6484176A002F04DFA28683F
:1038F000602806D0702804D040F6494171A002F03B
:1039000043FAA86830B1022804D040F64A416DA0BD
:1039100002F03AFA286930B1042804D040F64B414D
:1039200068A002F031FA022084F839007349744B20
:10393000744E754FDFF8D4C1DFF8D491754A4FF05B
:103940008048BAF1000F0CD0BAF1040F3ED0BAF1A2
:10395000080F66D0BAF10C0F62D187E00220BDE8F3
:10396000F09F206888421ED040451CD098421AD053
:10397000B04218D0B84216D0604514D0484512D095
:10398000654988420FD0654988420CD090420AD0E0
:103990006349884207D06349884204D040F65341C6
:1039A00048A002F0F1F92946206801F0B1FC206836
:1039B000816941F0080181612068816921F0040179
:1039C0008161206881692A69114328E02068884262
:1039D00012D0404510D098420ED0B0420CD0B84220
:1039E0000AD0604508D0484506D0904204D040F641
:1039F000624134A002F0C8F92946206801F0B4FC05
:103A00002068816941F4006181612068816921F445
:103A100080618161206881692A6941EA02218161AE
:103A20004AE0206888420ED040450CD098420AD027
:103A3000B04208D0B84206D0604504D040F671418B
:103A400020A002F0A1F92946206801F0E9FC2068D5
:103A5000C16941F00801C1612068C16921F0040118
:103A6000C1612068C1692A69114324E02068884245
:103A70000ED040450CD098420AD0B04208D0B8428F
:103A800006D0604504D04FF448610EA002F07CF9E6
:103A90002946206801F034FD2068C16941F40061C5
:103AA000C1612068C16921F48061C1612068C16978
:103AB0002A6941EA0221C16184F839B0002084F802
:103AC00038004CE72E2E2F447269766572732F539F
:103AD000544D3332463478785F48414C5F447269C4
:103AE0007665722F5372632F73746D333266347838
:103AF000785F68616C5F74696D2E6300000001403F
:103B00000004004000080040000C00400004014098
:103B100000400140001800400044014000480140BE
:103B2000001C00400020004010B504004FD0324877
:103B3000226882422BD0B2F1804F28D02F48824297
:103B400025D02F48824222D02E4882421FD02E48B4
:103B500082421CD02D48824219D02D48824216D074
:103B60002C48824213D02C48824210D02B488242EB
:103B70000DD02B4882420AD02A48824207D02A48D8
:103B8000824204D040F2F13128A002F0FDF8A06892
:103B900060B110280AD0202808D0402806D060281C
:103BA00004D040F2F23121A002F0EEF8206950B1C9
:103BB000B0F5807F07D0B0F5007F04D040F2F3313C
:103BC0001AA002F0E1F894F8390010B107E00120E2
:103BD00010BD002084F83800204600F043F8022091
:103BE00084F83900211D206801F0A8FA012084F82A
:103BF0003900002010BD000000000140000400401A
:103C000000080040000C004000100040001400407C
:103C100000040140004001400044014000480140D0
:103C200000180040001C0040002000402E2E2F44B1
:103C30007269766572732F53544D333246347878F7
:103C40005F48414C5F4472697665722F5372632FEF
:103C500073746D3332663478785F68616C5F746951
:103C60006D2E6300704770472DE9F04105460068EE
:103C70003C4E3D4F0C46B04207D1002C53D0042C93
:103C800051D0082C4FD00C2C4DD0B0F1804F60D0CB
:103C90003649884207D1002C45D0042C43D0082C4B
:103CA00041D00C2C3FD03249884206D1BCB3042C01
:103CB00039D0082C37D00C2C35D02E49884206D16B
:103CC0006CB3042C2FD0082C2DD00C2C2BD0B84248
:103CD00006D124B3042C26D0082C24D00C2C22D0BE
:103CE0002549884202D1D4B1042C1CD023498842F2
:103CF00000D1A4B12249884200D184B1214988422F
:103D000002D164B1042C0ED01F49884200D134B1D5
:103D10001E49884200D114B140F2524100E002E055
:103D20001BA002F031F801222146286801F066FA52
:103D30002868B04201D0B84203D1416C41F400413F
:103D400041642868016841F0010101600020BDE87C
:103D5000F081002CE7D0042CE5D0082CE3D00C2C0B
:103D6000E1D0D9E700000140000401400004004018
:103D700000080040000C00400040014000440140A9
:103D80000048014000180040001C00400020004096
:103D90002E2E2F447269766572732F53544D333231
:103DA000463478785F48414C5F4472697665722F7B
:103DB0005372632F73746D3332663478785F686141
:103DC0006C5F74696D2E630010B504460068074986
:103DD000884201D1FEF75CFB05492068884203D187
:103DE000BDE8104002F066BE10BD000000100040AB
:103DF000000400407047704730B401680A68D2067A
:103E00005ED50A684968416B304A096891420AD018
:103E10002F4A914207D02D4A6032914203D02C4A5A
:103E20006032914201D1202222E0284B1833DA146B
:103E300099421DD0264B1833994219D0234B783321
:103E4000994215D0224B7833994211D01F4B9202E0
:103E5000303399420CD01E4B3033994208D01B4B63
:103E60009033994204D01A4B9033994200D092017A
:103E70000B6823F001030B60416B154B0968483355
:103E8000994202D91249091F05E0104BA833994203
:103E900003D90F4908390A6008E00C4C0B4B483431
:103EA000103BA14201D9DA6000E09A60426B818D3B
:103EB00012685160416B09680A6842F001020A60A9
:103EC000816A30BC0348FCF78DBC000010600240E2
:103ED00010640240C20B002070B5026804461068EE
:103EE000D168536910F00F0F50D003F0010501F4B1
:103EF000907635435DD0C20705D0CA0503D5E26B85
:103F000042F00102E263420705D5DA0703D0E26B13
:103F100042F00202E263820705D5DA0703D0E26BC2
:103F200042F00402E263020705D5DA0703D0E26B30
:103F300042F00802E263E26B002A33D0800604D527
:103F4000880602D5204601F01EFC20684069E16B1E
:103F5000C0F38010090700D428B3204601F0C0FB4D
:103F60002068416949061AD5416921F04001416143
:103F7000606BA0B11B490165606BFDF782FC0028F6
:103F800010D0606B016DBDE870400847830610D506
:103F90008B060ED52046BDE8704001F0F4BB2046EC
:103FA000FFF729FF70BD2046FFF725FF0020E063E3
:103FB00070BD030606D50B0604D52046BDE870404B
:103FC00001F0CABD4006F3D54806F1D5D1682046B8
:103FD00021F04001D160202184F8391000F082FAEC
:103FE00070BD00000956000870B5040022D0A06919
:103FF0003A4E00283A493B4A3B4B20681CD08D156D
:10400000B0420BD0884209D0904207D0984205D0E8
:10401000294636A001F0B8FEA06900B3A069A84205
:104020001DD0B0F5007F1AD0B0F5407F17D040F218
:10403000011111E0012070BDB04210D088420ED0B5
:1040400090420CD03849884209D03849884206D07D
:10405000984204D040F2051124A001F095FEA0681A
:1040600038B1B0F5805F04D040F207111FA001F015
:104070008BFEE06938B1B0F5004F04D04FF4847185
:104080001AA001F081FE94F83900002520B984F8C7
:104090003850204600F04CF8242084F8390020687D
:1040A000C16821F40051C160204601F0B3FB2068D3
:1040B000016921F4904101612068416921F02A01E0
:1040C00041612068C16841F40051C160E56320206E
:1040D00084F8390084F83A00002070BD00100140D7
:1040E0000044004000480040001401402E2E2F44A0
:1040F0007269766572732F53544D33324634787833
:104100005F48414C5F4472697665722F5372632F2A
:1041100073746D3332663478785F68616C5F756193
:1041200072742E6300000000004C004000500040FC
:104130002DE9F04F87B0064614216846FCF7FDF8DC
:104140006249D6F800C062480222012303250727EE
:10415000DFF880B100244FF000694FF4806A8C458D
:1041600051D15B491431D1F800C04CF0100CC1F8AA
:1041700000C0096801F010010591016841F00101DA
:1041800001600068694600F00100059068028DE852
:10419000AD005846FDF782FE504D4F484F4628600F
:1041A000C5E90194C5E9034A6C614FF40039AC617B
:1041B000C5E90749D04628466C62FDF745FC08B1C1
:1041C000FCF7DBFB7563AE63444D434860357830E4
:1041D000E5E802074020A5E81101404845F81449E8
:1041E0006030AC61C5E907496C62FDF72DFC08B190
:1041F000FCF7C3FB3563002205212520AE63FEF7E3
:10420000EFF925203BE03249DFF8D4801031C44576
:104210003AD1D1F800C04CF4003CC1F800C00968A4
:1042200001F400310591016841F00101016000686D
:10423000694600F0010005900C208DE8AD0058465D
:10424000FDF72CFE254D2748C0352860C5E90194AF
:10425000C5E9034A6C614FF44030AC61C5E90740E1
:1042600028466C62FDF7F0FB08B1FCF786FB75632E
:10427000002205212620AE63FEF7B2F92620FEF7C4
:104280007FF907B0BDE8F08F174CA445F9D10C6851
:1042900044F480240C60096801F4802105910168D0
:1042A00041F0020101600068694600F002000590DB
:1042B0004FF440608DE8AD000C48FDF7EFFD0022A3
:1042C00005212720FEF78CF92720D8E700100140B0
:1042D000303802400000024040640240B81B002019
:1042E0000044004088600240004800400004024052
:1042F000F8B5044690F83A0020283CD1C1B3BAB3CF
:1043000094F83800012836D0012084F83800A162E2
:10431000A2850025E563222084F83A00636B1748E4
:10432000D863636B16481864636B1648D864606B77
:10433000134605650846666B216802463046091D2E
:10434000FDF744FD206801684168009184F8385009
:10435000C16841F48071C1602068416941F0010188
:1043600041612068416941F0400141610020F8BD90
:10437000FFE70120FBE70220F9E700006356000891
:104380009F5600081956000830B40368DC6844F0F2
:104390001004DC6030BC01F0BAB90000014801F043
:1043A0007FBC0000DC0B002070472DE9F843044679
:1043B00090F839001F4616460D46202850D1A5B169
:1043C0009EB194F8380001284AD0012084F83800C2
:1043D0004FF00008C4F83C80212084F83900FDF734
:1043E00019FFA6848146E68426E00120BDE8F88313
:1043F000E08C401EE084A0684B46B0F5805F4FF033
:1044000000024FF080012046009703D001F0D5FB59
:10441000E8B90DE001F0D1FBC8B928882168C0F3E4
:1044200008004860206908B16D1C05E0AD1C03E080
:10443000216815F8010B4860E08C0028D8D14B4664
:10444000002240212046009701F0B7FB08B103206D
:10445000CCE7202084F8390084F838800020C5E7B4
:104460000220C3E770B5044690F83900202830D107
:1044700069B362B394F8380001282AD0012084F887
:1044800038002162A284E2840025E563212084F8BB
:104490003900236B1048D863236B10481864236BD2
:1044A0000F48D864206B134605652668206B321DC3
:1044B000FDF78CFC21686FF04000086084F83850EC
:1044C0002068416941F080014161002070BD0120F8
:1044D00070BD022070BD0000A9560008D756000824
:1044E00019560008014801F0E3BB0000DC0B002076
:1044F0007047FEE70D4A00B50023C2F8A0320C4811
:10450000016821F440210160016841F480210160CB
:10451000C2F8A432052002F52872FCF728FA01201F
:1045200010600520FCF723FA136000BD00804042B4
:10453000000402400D4A10B50023C2F8A0320C4816
:10454000016821F440210160016841F4802101608B
:104550000124C2F8A442052002F52872FCF707FAEC
:1045600014600520FCF703FA136010BD0080404280
:1045700000040240F0B5054614480024016821F407
:104580004021016001680160114B22462646012747
:10459000C3F8A0620520FCF7EAF9C3F8A072600630
:1045A000040ED3F8240208B1641CE4B20520FCF721
:1045B000DEF9521CD2B2082AEAD315B1FFF79AFFEE
:1045C00001E0FFF7B7FF2046F0BD00000004024005
:1045D0000080404270B504461248016821F4402131
:1045E0000160016841F4802101600F4A0025C2F892
:1045F000A0522B460126E009C2F8A4026006040E70
:104600000220FCF7B4F9C2F8A0620520FCF7AFF96C
:10461000C2F8A0520320FCF7AAF95B1CDBB2082BFE
:10462000E9D370BD00040240008040420D4800B54F
:10463000016821F440210160016841F4802101609A
:10464000094A0120C2F8A402C2F8A002052002F51E
:104650002872FCF78CF9002353600520FCF787F9DA
:10466000136000BD00040240008040420E4800B5C7
:10467000016821F440210160016841F4802101605A
:104680000A4A0020C2F8A002C2F8A402052002F5DE
:104690002872FCF76CF901201060506005205DF86D
:1046A00004EBFCF764B900000004024000804042C3
:1046B000134800B50168002221F44021016001681F
:1046C00001600520FCF753F90E4B0AE0521CD2B2F0
:1046D000322A03D9FFF7CAFF012000BD0520FCF7ED
:1046E00046F9D3F824020028F0D10120C3F8A00233
:1046F0000520FCF73CF90020C3F8A00200BD000033
:1047000000040240008040422DE9F0411F4615465A
:10471000884606460024FFF789FF7006000EFFF763
:1047200059FFFFF7C5FF4046FFF754FFFFF7C0FFF3
:10473000FFF77CFF012000EB4600C0B2FFF74AFF05
:10474000FFF7B6FF6E1E09E0B44201D0012000E081
:104750000020FFF70FFF3855641CE4B2AC42F3D3DE
:10476000FFF784FF2046BDE8F081000010B501F09E
:104770000BFD012804D001F007FD022805D076E0EA
:104780003C480088A0F5806066E0042002F0F6F95D
:1047900040F2DC5470B1102002F0FAF950B1214619
:1047A000354802F015FF3448143802F0F5FEDFED0D
:1047B000330A11E0082002F0E1F9A0B1102002F064
:1047C000E7F980B12C482146143802F001FF2A484D
:1047D00002F0E2FEDFED2A0A20EE200ABDEEC00A5A
:1047E00010EE100A38E0042002F0C8F9A0B1102041
:1047F00002F0C4F980B121461F4802F0E9FE1E48CC
:10480000143802F0C9FE10EE100AFBF742FE41EC2C
:10481000100B9FED1C1B17E0082002F0AFF9E8B168
:10482000102002F0ABF9C8B113482146143802F049
:10483000CFFE114802F0B0FE10EE100AFBF729FE81
:1048400041EC100B9FED111B51EC100B53EC112B95
:10485000FBF78EFDFBF7FEFD00B210BD06482146BA
:10486000143802F0B5FE2146034802F0B1FE0020E4
:1048700010BD0000C20B0020B40000200000204446
:10488000000020C40000000000008D400000000077
:1048900000008DC0104810B50E4901600321416031
:1048A00000214FF400228160C0E903124FF440124E
:1048B000C0E905210122C0E9072141628162C1628C
:1048C000FCF766FC002803D0BDE81040FCF755B8A3
:1048D00010BD00000064004048190020154808B5CC
:1048E000016841F400110160016801F400110091B8
:1048F000016841F4800101600068002200F480003A
:10490000009005211020FDF76BFE1020FDF738FE0A
:10491000002205213A20FDF763FE3A20FDF730FE24
:10492000002205214620FDF75BFEBDE80840462039
:10493000FDF726BE3038024010B51C4896B0002264
:1049400000681490012114A802F0B6F9184C174918
:1049500014222061091D6846FBF7D6FC0021684639
:1049600002F093F9114920601422183105A8FBF7D1
:10497000CBFC002105A802F088F90C4960601422E4
:104980002C310AA8FBF7C0FC00210AA802F07DF92F
:104990000649A060142240310FA8FBF7B5FC0021A6
:1049A0000FA802F072F9E06016B010BD7887000819
:1049B000CC0000202DE9F04786B014216846FBF7B3
:1049C000BCFC51480024016841F0100101600168FD
:1049D00001F010010591016841F0040101600168D6
:1049E00001F004010591016841F0200101600168B6
:1049F00001F020010591016841F08001016001682A
:104A000001F080010591016841F001010160016838
:104A100001F001010591016841F0020101600168A6
:104A200001F002010591016841F040010160016857
:104A300001F040010591016841F008010160006842
:104A4000DFF8C89000F008004FF4005705900022EE
:104A500039464846FDF7A8FBDFF8B4A04FF440788C
:104A6000002241465046FDF79FFB4FF6FF76032597
:104A70000096CDE9015469462648FDF70FFA0096E5
:104A8000CDE9015469462448FDF708FA0096CDE9BE
:104A9000015469462148FDF701FA48F2F310CDE9C7
:104AA0000005694602941E48FDF7F8F94FF23F00F1
:104AB000CDE90005694602945046FDF7EFF90096EE
:104AC000CDE9015469461748FDF7E8F94CF6FF7047
:104AD000CDE90005694602944846FDF7DFF9012655
:104AE0000097CDE90164694648460394FDF7D6F97D
:104AF000CDE90086CDE9026569465046FDF7CEF95D
:104B000006B0BDE8F087000030380240000C0240DB
:104B1000000402400010024000080240001402405D
:104B200000000240001802400D4810B50B4901601A
:104B30000C49416000214FF480428160C0E90312BA
:104B400041618161C1610162FDF76AFB002803D008
:104B5000BDE81040FBF711BF10BD0000005400403D
:104B60008C190020A086010010B586B000241648DC
:104B700000940194029403940494124905940160F2
:104B80005321C0E9011440F2E731C0E90314FEF7F4
:104B9000EFF908B1FBF7F1FE4FF480500090694641
:104BA0000948FEF739FB08B1FBF7E7FE049404A9B6
:104BB00005480594FEF74AF9002801D0FBF7DDFE11
:104BC00006B010BD00040040E019002010B58EB002
:104BD00000240794089409940A940B941C216846B5
:104BE0000C94FBF7AAFB1E481C4901605321C0E945
:104BF000011444F61F61C0E90314FEF7B9F908B1C6
:104C0000FBF7BBFE4FF48050079007A91448FEF74E
:104C100003FB08B1FBF7B1FE1148FEF785FF08B1B1
:104C2000FBF7ABFE0B940BA90D480C94FEF70EF9A5
:104C300008B1FBF7A2FE6020CDE900040294002237
:104C4000694607480494FEF731FE08B1FBF795FE6C
:104C50000348FEF7FFFD0EB010BD00000008004045
:104C60001C1A002010B586B0002416480094019448
:104C700002940394049412490594016044F29F1134
:104C8000C0E90114A11EC0E90314FEF771F908B1CF
:104C9000FBF773FE4FF48050009069460948FEF719
:104CA000BBFA08B1FBF769FE049404A90548059412
:104CB000FEF7CCF8002801D0FBF75FFE06B010BD70
:104CC000000C0040581A00200C4810B50A49016039
:104CD0004FF4E1314160002181600C22C160C0E9E4
:104CE00004128161C161FFF77FF9002803D0BDE89C
:104CF0001040FBF742BE10BD00100140F81A002022
:104D00000D4810B50B4901600C49416000214FF47A
:104D100080628160C0E903120C22C0E90521C161F3
:104D2000FFF762F9002803D0BDE81040FBF725BE6D
:104D300010BD000000440040381B0020A086010088
:104D40000C4810B50A4901604FF4E131416000217F
:104D500081600C22C160C0E904128161C161FFF76A
:104D600043F9002803D0BDE81040FBF706BE10BD94
:104D700000480040781B0020FEE770470907090E35
:104D8000002806DA00F00F0000F1E02080F8141D82
:104D9000704700F1E02080F80014704790ED091A88
:104DA000012180ED0A1A80ED060A30EEC00AC0ED3E
:104DB000030A2B4A80ED090AD0ED0C0AD0ED0D1A3A
:104DC000F4EEE10AF1EE10FA06DDB5EEC00A11804C
:104DD000F1EE10FA0DD310E0D0ED0E1A1180F4EEC2
:104DE000E10AF1EE10FA04D2B5EEC00AF1EE10FAC3
:104DF00003DD70EE800AC0ED0C0AD0ED000AB7EEBC
:104E0000002A60EE800A30EE410AC0ED0F0AD0EDB4
:104E1000011A61EE821A90ED0C2A61EE821AC0ED41
:104E2000101A90ED021A70EEA10A20EE010A80ED30
:104E3000110A30EE800A80ED120AD0ED140AB4EEA9
:104E4000E00AF1EE10FA06D9D0ED130AB4EEE00A4A
:104E5000F1EE10FA01DBC0ED120A90ED120A704774
:104E6000CA00002091ED002A80ED002A91ED012A70
:104E700080ED012A91ED022A80ED022A80ED0D0AD3
:104E8000C0ED0E0A80ED131A9FED0B0AC0ED141A47
:104E900080ED050A80ED040A80ED030A80ED080A22
:104EA00080ED070A80ED060A80ED0B0A80ED0A0A04
:104EB00080ED090A704700000000000000B501F015
:104EC00063F9094A012805D001F05EF9022805D0EE
:104ED000002000BDD088A0F5806003E090894FF6E7
:104EE000F671484300B200BDC20B002008484FF4E1
:104EF0008061018041808180C18000210172417206
:104F00000174417441818181C181418270470000F7
:104F1000C20B0020F0B4066B4FF40075049C3560A2
:104F2000066B0025B560066BF560066B08253561DC
:104F3000066B0D0A3575056B6975056B110AA97548
:104F4000016BCA75026B190A1176016B4B76026B05
:104F5000210A9176016BCC76F0BC6421FCF766BB2C
:104F600030B4056B40F2FF142C60056B0024AC607C
:104F7000056BEC60056B08242C61056B0C0A2C7525
:104F8000046B6175046B110AA175016BCA75026B24
:104F9000190A1176016B4B7630BC6421FCF746BBD5
:104FA00001F0BCFA012002F0A3FCF9E708B50020EB
:104FB000CDF8000003F06CF90090FBF711FE05211D
:104FC000684602F0BBFCF5E710B500F0DEFE0848CD
:104FD00001F034FE00210648FCF756FA054C012189
:104FE000206901F07BFE2068BDE8104002F0ECBCB7
:104FF00048190020CC00002002F062FB02F010FBF8
:10500000022002F075FCF7E710B5502080F31188FC
:10501000BFF34F8FBFF36F8F03F040F918B104490E
:105020004FF080500860002080F3118810BD000010
:1050300004ED00E030B593B030216846FBF77DF910
:1050400014210CA8FBF779F919480025016841F0F3
:1050500080510160006800F080501190154801688F
:1050600041F4804101600068022400F48040119006
:1050700001200090000401908001CDE9064008AABB
:105080000420A82182E813000B906846FDF7CCFCB1
:105090000CA90F2081E831004FF4A0500F90E002DE
:1050A000109005210CA8FDF72BFB13B030BD0000BC
:1050B00040380240007000401048016841F470011F
:1050C00001600F48016841F0010101600C4A0021B4
:1050D0000832116002680B4B1A400260031D0A4A35
:1050E0001A60026822F48022026005480C300160D8
:1050F00002495806803908607047000088ED00E0DA
:1051000000380240FFFFF6FE103000240148FEF791
:10511000EDBA0000E01900200148FEF7E7BA0000F0
:105120001C1A00200148FEF7E1BA0000581A0020BE
:105130000148FEF7DBBA0000D81C0020F0B5026879
:10514000234B244D244E254F254C4FF0804C984244
:1051500009D0604507D0A84205D0B04203D0B8427C
:1051600001D0A04204D122F0700E4A6842EA0E0239
:1051700098421BD0604519D0A84217D0B04215D034
:10518000B84213D0A04211D0164DA8420ED0164DF1
:10519000A8420BD0154DA84208D0154DA84205D005
:1051A000144DA84202D0144DA84203D122F44075F8
:1051B000CA682A4302608A68C2620A6882629842A8
:1051C00001D0A04201D10969016301214161F0BD13
:1051D000000001400004004000080040000C0040B6
:1051E00000040140004001400044014000480140EB
:1051F00000180040001C00400020004070B504462C
:10520000214816460D46844225D0B4F1804F22D065
:105210001E4884421FD01E4884421CD01D48844230
:1052200019D01D48844216D01C48844213D01C4813
:10523000844210D01B4884420DD01B4884420AD0BF
:105240001A48844207D01A48844204D041F2882187
:1052500018A000F099FD65B1042D0AD0082D08D0E2
:105260000C2D06D0182D04D041F2892111A000F098
:105270008BFD0120216AA84081432162206AAE4053
:105280003043206270BD0000000001400004004077
:1052900000080040000C00400004014000400140B4
:1052A000004401400048014000180040001C00403C
:1052B000002000402E2E2F447269766572732F53A2
:1052C000544D3332463478785F48414C5F447269BC
:1052D0007665722F5372632F73746D333266347830
:1052E000785F68616C5F74696D2E630010B58468C7
:1052F00042EA032224F47F440A432243826010BD21
:10530000826822F070020A4342F007018160704710
:1053100030B5026A22F001020262026A43688469BF
:105320000D6824F07304254322F002048A682243A6
:105330000B4CA04202D00B4CA0420BD122F008042F
:10534000CA6823F4407322434C6922F004021C43D0
:105350008B6923434360856149684163026230BDC4
:1053600000000140000401402DE9F0410446006ABC
:105370000D4620F010002062206A6768A1692A6843
:1053800021F4E64141EA0228A96820F0200040EA21
:1053900001161348844202D01248844217D1E868AB
:1053A00030B1082804D041F205210FA000F0ECFC38
:1053B000E96826F0800040EA011020F040066969A3
:1053C00027F4406040EA8100A96940EA81076760EC
:1053D000C4F818806868A0632662BDE8F081000008
:1053E00000000140000401402E2E2F4472697665B2
:1053F00072732F53544D3332463478785F48414CA2
:105400005F4472697665722F5372632F73746D33C4
:1054100032663478785F68616C5F74696D2E630002
:105420002DE9F0410446006A0D4620F480702062A8
:10543000206A6768E16920F4007021F0730229682E
:1054400041EA0208A96840EA01261D48844202D0C8
:105450001C4884422BD1E86830B1082804D041F2BE
:10546000173119A000F090FCA869B0F5007F05D0B5
:1054700020B141F2183114A000F086FC6869B0F543
:10548000807F05D020B141F219310FA000F07CFCE3
:10549000E96826F4006040EA012020F4806669692A
:1054A00027F4405040EA0110A96940EA01176760FB
:1054B000C4F81C806868E0632662BDE8F0810000E3
:1054C00000000140000401402E2E2F4472697665D1
:1054D00072732F53544D3332463478785F48414CC1
:1054E0005F4472697665722F5372632F73746D33E4
:1054F00032663478785F68616C5F74696D2E630022
:105500002DE9F0410446006A0D4620F480502062E7
:10551000206A6668E1692A6821F4E64141EA0228C6
:10552000A96820F4005040EA01370E48844202D0B6
:105530000D4884420ED16869B0F5807F05D020B156
:1055400041F25D3109A000F01FFC696926F480403A
:1055500040EA81166660C4F81C806868206427628F
:10556000BDE8F08100000140000401402E2E2F44D0
:105570007269766572732F53544D3332463478789E
:105580005F48414C5F4472697665722F5372632F96
:1055900073746D3332663478785F68616C5F7469F8
:1055A0006D2E630010B5036A046A24F001040462DE
:1055B000846924F0F00444EA021423F00A020A4346
:1055C0008461026210BD10B5036A23F01003036208
:1055D0008369046A23F4704343EA023224F0A0038F
:1055E00043EA01118261016210BD000010B5D0EDE7
:1055F000000A91ED000A0348FFF7D0FB014890ED47
:10560000120A10BDBC05002010B5806B0021C185B9
:10561000C184FEF7F0FB10BD70B5846B2068406953
:1056200094F83910C0F3C0100025212904D118B115
:10563000E584204600F062F82068406994F83A104A
:10564000C0F38010222904D118B1E585204600F06E
:1056500047F8E06B40F01000E0632046FEF7CBFB1C
:1056600070BD10B50146806B09680968C90513D47F
:105670000021C1850168CA6822F48072CA6001688D
:105680004A6922F001024A6101684A6922F0400237
:105690004A61202180F83A10FEF780FE10BD10B557
:1056A000806BFEF781FE10BD10B50146806B096866
:1056B0000968C9050CD40021C18401684A6922F037
:1056C00080024A610068C16841F04001C16010BDBC
:1056D000FEF708FF10BD10B5806BFEF709FF10BD87
:1056E0000168CA6822F49072CA6001684A6922F0AF
:1056F00001024A61202180F83A1070470168CA68A7
:1057000022F0C002CA60202180F839107047F8B535
:10571000044690F83A00202833D179B372B394F854
:10572000380001282DD0012084F83800A162A2851C
:105730000025E563222084F83A00606B1346056576
:105740000846666B216802463046091DFCF7ECFAF4
:10575000206801684168009184F83850C16841F4BC
:105760008071C1602068416941F001014161206898
:10577000416941F0400141610020F8BDFFE701208F
:10578000FBE70220F9E710B590F83A10222901D082
:10579000022010BD8168B1F5805F11D00169002938
:1057A00001681FD0496801F07F03816A4A1C826248
:1057B0000B70C18D491E0904090CC18518D026E063
:1057C0000269816A002A0268526805D0D2B20A8052
:1057D000816A491C8162ECE7C2F308020A80816A8F
:1057E000891CF7E74A68816A4B1C83620A70E0E70C
:1057F0000168CA6822F49072CA6001684A6922F09E
:1058000001024A61202180F83A10FEF7C7FD00200E
:1058100010BD00002DE9F04104464068BC498842B3
:1058200004D340F68511BBA000F0AEFAE06838B1B1
:10583000B0F5005F04D040F68611B6A000F0A4FADF
:10584000206950B1B0F5806F07D0B0F5C06F04D0BB
:1058500040F68711AFA000F097FA60694FF6F37138
:10586000084200D120B940F68811AAA000F08CFAB5
:105870002268106920F44051E068084310612268F2
:10588000D06849F20C6188432369A168E56919432E
:1058900063692B4319430143D1602268506920F4A6
:1058A0004071A06908435061E2696425B2F5004F78
:1058B000A748A84922684FF032083FD08A4201D059
:1058C00082427CD1FDF770F800EBC00101EB0010C3
:1058D00061688900B0FBF1F6FDF766F800EBC001E6
:1058E00001EB001061688900B0FBF1F0B0FBF5F04E
:1058F0006FF01801484306EB800108EB0110B0FB84
:10590000F5F000F0F006FDF74FF800EBC00101EBF9
:10591000001061688900B0FBF1F0B0FBF5F006EB18
:105920000016FDF741F800EBC00101EB00106168C3
:105930008900B0FBF1F7FDF737F8D2E08A4201D0D9
:1059400082423DD1FDF730F800EBC00101EB0010C1
:1059500061684900B0FBF1F0B0FBF5F00601FDF71E
:1059600023F800EBC00101EB001061684900B0FBB7
:10597000F1F7FDF719F800EBC00101EB00106168C9
:105980004900B0FBF1F0B0FBF5F06FF018014843AF
:1059900007EB800108EBC100B0FBF5F000F0F80068
:1059A00006EB4006FDF700F800EBC00101EB00102C
:1059B00061684900B0FBF1F7FCF7F6FF3CE055E009
:1059C000FCF7E2FF00EBC00101EB00106168490049
:1059D000B0FBF1F0B0FBF5F00601FCF7D5FF00EBF2
:1059E000C00101EB001061684900B0FBF1F7FCF762
:1059F000CBFF00EBC00101EB001061684900B0FB78
:105A0000F1F0B0FBF5F06FF01801484307EB8001AF
:105A100008EBC100B0FBF5F000F0F80006EB400623
:105A2000FCF7B2FF00EBC00101EB00106168490018
:105A3000B0FBF1F7FCF7A8FF00EBC00101EB001091
:105A400061684900B0FBF1F0B0FBF5F06FF01801B0
:105A5000484307EB800108EBC100B0FBF5F000F014
:105A60000700216830448860BDE8F081FCF78CFFB6
:105A700000EBC00101EB001061688900B0FBF1F69A
:105A8000FCF782FF00EBC00101EB001061688900A8
:105A9000B0FBF1F0B0FBF5F06FF01801484306EBF6
:105AA000800108EB0110B0FBF5F000F0F006FCF708
:105AB0006BFF00EBC00101EB001061688900B0FBD7
:105AC000F1F0B0FBF5F006EB0016FCF75DFF00EB24
:105AD000C00101EB001061688900B0FBF1F7FCF731
